:020000040800F2
:1000000000ED0020D5030008358C0008437E000871
:10001000318C0008792C000845E800080000000039
:1000200000000000000000000000000015030008B0
:100030006B370008000000007103000881BD000854
:10004000EF030008EF030008EF030008EF030008C8
:10005000EF030008EF0300086D370008EF03000806
:10006000EF0300087737000881370008EF03000826
:10007000EF030008EF030008EF030008EF03000898
:10008000EF030008EF030008EF030008EF03000888
:100090007D2C0008EF030008EF0300088B370008F1
:1000A000EF030008EF030008EF030008EF03000868
:1000B000EF030008EF030008EF030008EF03000858
:1000C000EF030008EF030008EF030008EF03000848
:1000D000EF030008C1C40008EF030008D1C4000802
:1000E000EF030008EF030008EF030008EF03000828
:1000F000EF030008EF030008EF030008EF03000818
:10010000EF030008EF030008EF030008EF03000807
:10011000EF030008EF030008C5BE0008EF03000866
:10012000EF030008F12D0008012E0008EF0300087E
:10013000EF030008EF030008EF030008EF030008D7
:100140008D2C0008EF030008EF0300080990000859
:10015000EF03000899360008A936000801C6000818
:10016000EF030008EF030008EF030008EF030008A7
:10017000EF030008EF030008EF0300080000000091
:10018000EF030008EF03000800F002F800F0B2F8F7
:100190000AA090E8000C82448344AAF10107DA45E2
:1001A00001D100F0A7F8AFF2090EBAE80F0013F082
:1001B000010F18BFFB1A43F0010318479084010098
:1001C000B08401000A444FF0000C10F8013B13F01A
:1001D000070408BF10F8014B1D1108BF10F8015BA0
:1001E000641E05D010F8016B641E01F8016BF9D193
:1001F00013F0080F1EBF10F8014BAD1C0C1B09D1EA
:100200006D1E58BF01F801CBFAD505E014F8016B5B
:1002100001F8016B6D1EF9D59142D6D370470000ED
:100220000023002400250026103A28BF78C1FBD8FF
:10023000520728BF30C148BF0B6070476E2900F0DD
:10024000C183702900F01187662915F0BD836529E7
:1002500015F0BA83672915F0B783612915F0B683C5
:1002600003681B0A28BF41F08001692900F06E83F2
:10027000642900F06B83752900F068836F2900F012
:100280009E86782900F0DD86E92900F03986E42988
:1002900000F03686F52900F03386EF2900F09B86C2
:1002A000F82900F0DC860368DB0928BF41F08001F3
:1002B000632901F0CB81732901F0D081E32901F09A
:1002C000DB81F32901F0E081002070471FB515F0B4
:1002D000C3FA00F02BFF04000020002114F074F991
:1002E000401C60600020002114F058F9E0601FBD40
:1002F00010B510BD01F07BFA1146FFF7E7FF11F0D2
:100300001DFF01F0F3FC03B4FFF7F2FF03BC01F0A3
:1003100043FD00002C4B19680868B0E8F04F80F3EB
:100320000988BFF36F8F4FF0000080F3118870478A
:100330000000000008480068006880F308884FF05B
:10034000000080F3148862B661B6BFF34F8FBFF32D
:100350006F8F00DF00BF00BF08ED00E0DFF80C008A
:10036000016841F470010160704700BF88ED00E052
:10037000EFF30980BFF36F8F134B1A681EF0100F55
:1003800008BF20ED108A20E9F04F106009B44FF04B
:10039000500080F31188BFF34F8FBFF36F8F13F0BE
:1003A000D9FA4FF0000080F3118809BC1968086879
:1003B000B0E8F04F1EF0100F08BFB0EC108A80F3C9
:1003C0000988BFF36F8F704774030020EFF3058037
:1003D000704700000948804709480047FEE7FEE7EC
:1003E000FEE7FEE7FEE7FEE7FEE7FEE7FEE7FEE7E5
:1003F00004480549054A064B7047000061BE0008E5
:100400008901000800AD002000ED002000CD002093
:1004100000CD002053EA020C00F069802DE9F04B7A
:100420004FF00006002B1FBFB3FA83F503FA05F463
:1004300024FA05F65E4012BF1643B2FA82F502FABC
:1004400005F4C5F120051EBF22FA05FC44EA0C04A0
:10045000203556EA044C4FEA144418BF641C4FF090
:1004600000084FF00009904271EB030C39D30029CA
:1004700019BFB1FA81F701FA07F6B0FA80F700FA6E
:1004800007F6C7F120071EBF20FA07FC46EA0C0654
:100490002037B6FBF4FCA7EB0507103F07F01F0B56
:1004A000CBF120060CFA0BFB2CFA06F644BFB34640
:1004B0000026202FA4BF5E464FF0000B5BEA060C1F
:1004C00008BF4FF0010B19EB0B09ABFB027C48EBAB
:1004D0000608C01B06FB02CC0BFB03CC71EB0C0126
:1004E000C1E70B46024641464846BDE8F08B13B5CE
:1004F0004FF000004FF00001AFF30080BDE81C405A
:10050000704700001CB50C46064B7B4469460090C2
:10051000204600F07EFC04460020694600F08CFC7A
:1005200020461CBD2B0900000FB41CB5084B06AAC1
:100530007B4469460090059800F06BFC044600205F
:10054000694600F079FC20461CBC5DF814FB0000F5
:10055000050900002DE9F05F894604464FF0000AC6
:10056000DFF874B1FB44C0F820A02046E16888475A
:10057000002874D0252806D0D4E901219047206AAC
:10058000401C2062F1E700265F462046E16888476C
:100590002028054607DB312D05D2781910F8200CEC
:1005A00008B10643F1E7B00701D526F00406C4F808
:1005B0001CA00027C4F818A02A2D09D028460EF048
:1005C00078FA38B304EB8708303DC8F8185019E0C2
:1005D00059F8041B204604EB87029161E1688847C3
:1005E000012F054618D1E069002820DA26F0200600
:1005F0001DE0D8F8180000EB800005EB4000303813
:10060000C8F818002046E168884705460EF051FA00
:100610000028EED1012F0AD02E2D08D12046E16806
:1006200088477F1C0546022F46F02006C4DBA069E0
:10063000002803DA404246F00106A061F00701D02D
:1006400026F010066C2D0BD0682D09D04C2D39D01A
:100650006A2D35D0742D35D07A2D33D016E038E0A0
:10066000E1682F4620468847B842054609D16C2FDD
:1006700026D04FF48060E16806432046884705464F
:1006800004E06C2F1AD04FF4807006430DB3A5F12F
:100690004100192802D8203546F400664A4629460A
:1006A000204626604E46FFF7C9FD80B101280BD0D9
:1006B000F61D26F0070000F1080956E74020E4E7A0
:1006C0008020D8E70020D6E706F104094DE7284648
:1006D00052E7206ABDE8F09F9E7F0100032A40F2A6
:1006E000308010F0030C00F0158011F8013BBCF1D4
:1006F000020F624498BF11F801CB00F8013B38BFEC
:1007000011F8013BA2F1040298BF00F801CB38BFF9
:1007100000F8013B11F0030300F02580083AC0F017
:10072000088051F8043B083A51F804CBA0E80810BF
:10073000F5E7121D5CBF51F8043B40F8043BAFF3F2
:100740000080D20724BF11F8013B11F801CB48BF4C
:1007500011F8012B24BF00F8013B00F801CB48BF82
:1007600000F8012B704710B5203AC0F00B80B1E8BB
:100770001850203AA0E81850B1E81850A0E81850D6
:10078000BFF4F5AF5FEA027C24BFB1E81850A0E8DF
:10079000185044BF18C918C0BDE810405FEA827CF9
:1007A00024BF51F8043B40F8043B08BF7047D20710
:1007B00028BF31F8023B48BF11F8012B28BF20F8B1
:1007C000023B48BF00F8012B704702F0FF0343EAE9
:1007D000032242EA024200F002B84FF0000204296C
:1007E000C0F0128010F0030C00F01B80CCF1040C60
:1007F000BCF1020F18BF00F8012BA8BF20F8022B94
:10080000A1EB0C0100F00DB85FEAC17C24BF00F839
:10081000012B00F8012B48BF00F8012B70474FF067
:10082000000200B5134694469646203922BFA0E840
:100830000C50A0E80C50B1F12001BFF4F7AF09074C
:1008400028BFA0E80C5048BF0CC05DF804EB89003D
:1008500028BF40F8042B08BF704748BF20F8022B80
:1008600011F0804F18BF00F8012B70477047704798
:10087000704710B500F05EFC006810BD10B504466E
:1008800000F058FC046010BD70B50446856900682E
:10089000C10601D5302600E02026C00707D070BD74
:1008A000D4E9012130469047206A401C20626D1E29
:1008B000F6D570BD70B5044685690078C00707D1CC
:1008C00070BDD4E9012120209047206A401C20629D
:1008D0006D1EF6D570BD09684A0501D540B2704756
:1008E000C905FCD500B2704709684A0501D5C0B2F8
:1008F0007047C905FCD580B2704770B50C460546F7
:10090000012A05D02878800600D5EA69002302E094
:10091000012305E05B1C934202D2E05C0028F9D180
:10092000A869E618C01AA861286A184428622846EF
:10093000FFF7AAFF04E0D5E9012114F8010B904765
:10094000B442F8D32846FFF7B5FF70BD2DE9F0415A
:100950000646002410687529314616A510D0FFF709
:10096000BAFF002802DA404213A507E031688A077F
:1009700001D512A502E0490704D511A5012401E023
:10098000FFF7B2FF00210A2206F1240709E0B0FBBD
:10099000F2FCB0FBF2F302FB1C0030307854184636
:1009A000491C0028F3D123462A463046BDE8F041D1
:1009B00000F02BBC000000002D0000002B00000008
:1009C0002000000011680268006A530501D5087014
:1009D0000AE0D30501D5088006E0130603D5C21747
:1009E000C1E9000200E008600120704770472DE96E
:1009F000FF4F0C461E464FF0FF378BB0D2E9000187
:100A0000DDF860800A908A46C1F30A5505B93D4673
:100A10000021084614F0C8FFBAF1000F00F44000AE
:100A200005DA00EB80004FF4400101EA50004FEA84
:100A30009059B9F1010F00DDB9460A9850EA4A0011
:100A40000ED044F61050A5F2FF3545432F14B8F1EF
:100A5000000F1ED07542291E1EDDC9F100021CE0E8
:100A6000B8F1010F4FF0000001D0302103E0F24354
:100A700005E02154401CB042FBDB3046002200213F
:100A800021540B99C1F80880C1E900200FB0BDE8DE
:100A9000F08FBD1B6D1CDEE74A4600DA694206A8EE
:100AA00000F016FE06AB93E8070003AB83E80700EF
:100AB00050460A9901F039FC8DE80700A0F5005076
:100AC0001F3800900398002D09DD42F21F014A46AD
:100AD000084403A90390684601F0C3FE08E0A0F5AE
:100AE00000504A461F3803A90390684601F0E1FE12
:100AF0008DE807000004000C03D04FF0FF304108E0
:100B000000E01046B8F1000F03D000220092154615
:100B10001EE0751E05D400F011FB303262556D1ECB
:100B2000F9D5B3460122084302D000227F1C04E01D
:100B30002078302801D100227F1E002A099786D014
:100B40001DE0112D07DA00F0F9FA303262556D1C04
:100B500050EA0102F5D1084302D00098C8B10EE076
:100B60000021681E05E0235C625C63542254401E31
:100B7000491C8142F7DBAB46A81B401E09900020B0
:100B800004F80B000B98099AC0F80880C0E9002B04
:100B90007CE711264FF0000859E72DE9F04F884611
:100BA0000446D21D22F0070191B0D1E90001CDE940
:100BB0000A010DF049FE02460B98C00F01D02D200E
:100BC00007E02068810701D52B2002E0202101EAFF
:100BD000C000032A099001D0072A05DB03464146DD
:100BE000204600F0E9FC0BE12078800601D5E069A1
:100BF00000E00620B8F1650F814606D0B8F1660F17
:100C000018D0B8F1670F70D131E00020B9F1110FA1
:100C1000009001DB112301E009F101030AAA01A9F7
:100C20000CA8FFF7E4FEDDE90C70002609F10105D0
:100C3000834647E001204B4600904FF000470AAA48
:100C400001A90CA8FFF7D3FEDDE90DB00C995D46B4
:100C5000002610B909F101000D18B9EB050003D405
:100C6000C0F1FF3609F10105A5EB09002BE0B9F150
:100C7000010F01DA4FF001090020B9F1110F0090C6
:100C8000484601DD112300E003460AAA01A90CA889
:100C9000FFF7ADFEDDE90C704D4600268346207857
:100CA00000070AD4AB4500DA5D4601A8012D04DD3A
:100CB000411911F8011C302907D04F4502DA17F10C
:100CC000040F04DA012082460FE06D1EEEE7002FCC
:100CD00002DCED1B3E4403E0781CA84200DD7D1CD5
:100CE000B81B00F1010A4FF000472078000703D439
:100CF000AA4501DB4FF0FF3A0021B7F1004F0DF19B
:100D000043088DF8431024D002202B23002F01DA52
:100D10007F422D230A21021EA0F1010000DC5FB1F9
:100D200097FBF1FC97FBF1F201FB1C7C17460CF1E1
:100D3000300C08F801CDEEE7A8F10100037021881E
:100D4000090501D5452100E06521A0F1010800F861
:100D5000011C09980FA9A1EB0807FF1D00B1012094
:100D6000411901EBEA70A1693844081A401EA061DC
:100D70002078C00602D42046FFF786FD099828B1E6
:100D8000D4E901219047206A401C20622078C006E7
:100D900022D52046FFF778FD1EE0002E04DBB34588
:100DA00002DD01A8805D00E03020D4E901219047F8
:100DB000206A401C2062761CAAF101005FEA000A4A
:100DC0000AD100F0B3F9C0680168405CD4E90121A0
:100DD0009047206A401C2062281EA5F10105DCDC3A
:100DE00007E0D4E9012118F8010B9047206A401C64
:100DF0002062381EA7F10107F3DC2046FFF75AFDF9
:100E0000032011B043E6000001694A1C0261087822
:100E1000704700B58FB0CDE901310021059105493A
:100E20007944CDE9031011466846FFF793FB0FB0F4
:100E300000BD0000E5FFFFFF0A6802F8010B0A6031
:100E4000704700002DE9FF5F15468A460446DFF82B
:100E5000AC80F8440027D8E900103E46CDE90010E8
:100E600010E03AF816106A4602A800F09FFC411CF8
:100E700007D02178890603D5E269391891420DD847
:100E80000744761C2078800602D5E069B84205DD6B
:100E9000AE42E6DB3AF816000028E2D1A069C01B9A
:100EA000A0612046FFF7F0FCD8E90010CDE9001062
:100EB000002017E03AF818106A4602A800F076FC05
:100EC000B0F1FF3F81460BD000250DF1080B05E086
:100ED000D4E901211BF8050090476D1C4D45F7D35F
:100EE00008F10100B0428046E4DB206A3844206209
:100EF0002046FFF7DFFCBDE8FF9F0000C27601003F
:100F00002DE9F0418046D21D22F007020025D2E9EA
:100F10000002F52915A614D0011E72F1000106DAAF
:100F20000023D0EB030063EB020211A608E0D8F81F
:100F300000108B0701D50FA602E0490701D50EA6C8
:100F400001251146002408F1240704E000F0F6F81A
:100F500030323A55641C50EA0102F7D12B46324632
:100F600021464046BDE8F04100F04FB900000000C6
:100F70002D0000002B0000002000000030B40021F4
:100F800000F1240408E002F00705D208303542EAF7
:100F90004372DB086554491C52EA0305F3D1046827
:100FA000002310A2250707D5A40600D421B1C469E7
:100FB00001230DA2641EC46130BC00F026B910B537
:100FC000044621461068FFF78FFC02462046BDE824
:100FD00010400023D2E7D21D22F00701D1E90023FF
:100FE000CCE700000000000030000000F0B40D4627
:100FF0000188090502D5214C7C4402E01F4C7C4449
:101000000E34002100F1240608E002F00F07120957
:10101000E75D42EA03721B097754491C52EA030751
:10102000F3D102780023120704D5702D06D009B140
:10103000022311342246F0BC00F0E7B8012310343B
:10104000F8E770B504460D4621461068FFF74CFCE2
:10105000024629462046BDE870400023C6E7D21D5F
:1010600022F00703D3E90023C0E70368126843F0C6
:10107000200303600823C3610023B7E72475010040
:101080000FB4002300B589B00CA900910B99CB6077
:10109000214B7B440693214B7B44079304236FF041
:1010A0000042CDE901321E4A7A446B46089202465C
:1010B000002014F071FD09B05DF814FB70B5064610
:1010C0004FF0FF3015460C46324686B00091CDE910
:1010D000010169460020049004A8FFF7D1FF0246F1
:1010E0000498211825B108B1084600E02046286080
:1010F000049800280DD0002A02DD0098884208D00C
:101100003246081B69460094CDE9010404A8FFF7A4
:10111000B7FF06B070BD0000FB050000130600001D
:101120004D010000004870479CAC0020004870470B
:10113000BCAC0020004870479CAC002030B5B0F13A
:101140000A024FEA900E71F100034EEA817EB0EB85
:101150000E0061EB91014FEA101E4EEA017E10EB8A
:101160000E0041EB11114FEA102E4EEA016E10EB0A
:101170000E0041EB11214FEA104E4EEA014E10EBEA
:101180000E0041EB1141401841F100014FEAD0003F
:1011900040EA41704FEAD10110EB80054FEA81042B
:1011A00044EA907444EB01046D1944EB0404521BAF
:1011B000A3414FF0000348BF0A3200D530BD401CA8
:1011C00041F1000130BD00001FB584B000200A9C31
:1011D00006AB04AA02A90094AFF3008018B1DDE9C0
:1011E000020108B010BD0348204000F08DFD002032
:1011F0000146F6E70000207C10B5044600F01CFB19
:101200000068005D00F0010010BD2DE9F0470D46BB
:1012100099469246044600F124080168880604D5E0
:10122000E06921F01001216000E00120A84201DD09
:10123000471B00E00027A1697A1902EB0900081A90
:10124000A0612078C00602D42046FFF71DFB0026CF
:1012500008E0D4E901211AF806009047206A401CF2
:10126000761C20624E45F4DB2078C0060AD5204665
:10127000FFF70AFB06E0D4E9012130209047206AFD
:10128000401C2062381EA7F10107F4DC07E0D4E916
:10129000012118F805009047206A401C2062281E92
:1012A000A5F10105F3DC2046FFF704FB20780006DA
:1012B00002D50220BDE8F0870120FBE72DE9F04FC1
:1012C00004460D46D21D22F0070089B0D0E90097F0
:1012D000484639460DF0B8FA0246F80F01D02D23E2
:1012E00007E02068810701D52B2302E0202101EAD5
:1012F000C0038DF820300BB1012000E00020032A4C
:10130000824601D0072A04DB2946204600F054F922
:101310003FE12078800601D40D2500E0E569C7F3A0
:101320000A560D2D49DA00214FEA175B084614F0E2
:101330003BFB002F00F4400007DA00EB80004FF485
:10134000400100EBD07001EA60008115012901DD48
:101350004FF0FF3100224FEA850CBCF1180F06D385
:101360001346ACF118004FF08052C24003E04FF436
:10137000801323FA0CF30CF10C0CBCF1200F04D3F6
:10138000ACF1200C09FA0CF001E007FA0CF000298E
:101390004FF0004801DD18B90FE00ED140450CD3E5
:1013A00019EB02095F4121B9404502D19F4329EA67
:1013B0000209BBEB175F00D0761C2088000502D520
:1013C0007B48784402E07A487844193808AA3023E8
:1013D00002F80A30037C0AF10101002E0AF1020A28
:1013E00053546A4602DC4FF0300101E04FF0310106
:1013F0004FF001088DF8001002D0A6F2FF3603E08E
:1014000059EA470100D06B4E002D02DC2178090714
:1014100004D54FF002082E218DF80110C44600219A
:101420000BE0C7F303433F01C35C491C6D1E02F888
:101430000830052908F1010801DA002DF1DC00214E
:101440000CE000EB1973491C1B786D1E082902F88B
:1014500008304FEA091908F1010801DA002DF0DC23
:1014600021688B0602D516E0A8F10108E04505DDEC
:1014700002EB080313F8013C302BF5D0B8F1000F54
:1014800009DD02EB080313F8013C2E2B03D10907F9
:1014900001D4A8F10108002D05DD3E2102F8081055
:1014A0006D1E08F10108407C002E02F8080008F1CA
:1014B000010804DA2D20764202F8080002E02B2011
:1014C00002F808000A214FF47A70864208F10108F8
:1014D0000BDB96FBF0F3303302F8083096FBF0F3A9
:1014E00008F1010800FB136601E0642E0CDB6420A8
:1014F00096FBF0F3303302F8083096FBF0F308F176
:10150000010800FB136601E00A2E06DB96FBF1F0F2
:10151000303002F8080008F1010896FBF1F001FBF9
:101520001060303002F80800A16908F1010808EBEA
:10153000050202EB0A00081AA0612078C00602D456
:101540002046FFF7A1F9216A08AE01EB0A002062EC
:1015500004E0D4E9012116F8010B9047BAF1010A21
:10156000F7D22078C00602D52046FFF78DF96E46E7
:1015700009E016F8010B3E280FD0D4E9012190476D
:10158000206A401C2062B8F10108F2D22046FFF721
:1015900091F909B00320BDE8F08F206A2844206249
:1015A00003E0D4E90121302090476D1EEBD3F8E72A
:1015B0009571010002FCFFFF2DE9F0411F46044632
:1015C00003260168072A01F4006004DB08B116A5B0
:1015D00005E016A503E008B115A500E015A521F06A
:1015E00010002060A069C01EA0610FB1401EA06164
:1015F0002046FFF749F94FB1D4E901213846904719
:10160000206A401C2062C01C206206E0206AFAE7C3
:10161000D4E9012115F8010B9047761EF8D2204637
:10162000FFF748F9BDE8F0814E414E006E616E0053
:10163000494E4600696E660010B5436913B1AFF3B9
:10164000008001E0FFF759F9012010BD127800F188
:1016500024010A7000224A700122EDE711684FF060
:10166000FF32E9E710B5436913B1AFF3008001E041
:10167000FFF7E8FB012010BD128800F124018284ED
:101680000022C2840122EDE711684FF0FF32E9E742
:10169000426842B1016811F8013B23B1521EC0E912
:1016A0000012184670470121C160881E70474268C9
:1016B0005AB1C368016843B983688B4205D0491E9B
:1016C000521CC0E90012002070474FF0FF307047F5
:1016D0002DE9F047814616468AB0334878440DC854
:1016E0008DE80D0030487844801C03AC0DC884E8B8
:1016F0000D0041F69B300844372190FBF1F290FB3E
:10170000F1F5A5F1800501FB12041B3C02D56442F2
:10171000012000E00020DFF890A080460027FA4476
:10172000AAF1BE0A0DE0E00709D03246684607EB91
:1017300047010AEB810101F0BCF88DE80700641055
:101740007F1C002CEFD1184F7F44AC3F18E0E80716
:1017500014D007EB04100DF1180A90E80E008AE887
:101760000E00C068F04201D198190890324606A9CF
:1017700003A801F09EF803AB83E807006D10641C1A
:10178000002DE4D132466946B8F1000F03A802D01B
:1017900001F067F801E001F08CF8C9E90001C9F82F
:1017A00008200AB0BDE8F0870C6F010070B516463E
:1017B0000C46054600F040F8036893F80101012843
:1017C00006D0FF2C0FD8185D68B101202C7070BDB9
:1017D000D3F807013246214603F207130344284693
:1017E000BDE8704018474FF0FF3070BD7047754638
:1017F000FFF798FCAE4605006946534620F0070007
:10180000854618B020B5FEF7F3FDBDE820404FF047
:1018100000064FF000074FF000084FF0000B21F0DA
:101820000701AC46ACE8C009ACE8C009ACE8C009A7
:10183000ACE8C0098D46704710B5FFF777FC001D76
:1018400010BD00BF852D01002DE9FF4F064689B070
:101850000878FF2806D0491C2D2805D000244FF019
:10186000000908E000200CE00124F8E709EB8903F7
:10187000491C00EB43090878FF28F7D114B1C9F1DE
:1018800000008146107800252C46AA4629462D28BE
:1018900001D02B2804D1521C2D2813D000208246C1
:1018A0008B461078FF280FD04FF0000C0A21521CF5
:1018B000A5FB017804FB018105FB0C11C5194BEB5D
:1018C0000104EEE70120EAE70021084614F06CF875
:1018D000BAF1000F02D000EB80004008C0F381583D
:1018E000B8F1010F01DD4FF0FF380C9809EB00074C
:1018F00055EA040009D04FF0020917F5FA7F0BDA18
:101900004FEACA70C6E900B012E04FEACA70C6E9F1
:1019100000B00DB0BDE8F08FB7F5FA7F0DDDF048EF
:101920007844D0E90010C6E9001040EACA7070603F
:10193000FFF700FCC0F80090EBE7391E02DAC8F1AF
:10194000000200E0424600DA794206A8FFF7C0FE36
:1019500006AB93E8070003AB83E8070044F23E00C0
:101960005BEA04010090584604D144F21E012C4663
:101970005D460091210C0904014306D1009924041D
:1019800044EA15442D041039009104F07F410143CD
:1019900006D10099240244EA15642D020839009109
:1019A00004F07041014306D10099240144EA157402
:1019B0002D01091F009104F04041014306D1009917
:1019C000A40044EA9574AD00891E009104F0004122
:1019D000084304D100986D196441401E00904246AE
:1019E0006846002FCDE9014503A902DD00F075FF2F
:1019F00001E000F04AFFBAF1000F04460D4601D0A5
:101A000084F0004440F2FF7724F00040284303D0E4
:101A1000C4F30A50B84212D1FFF78CFBC0F8009013
:101A2000C4F30A50B8420AD1AE487844D0E9001055
:101A3000C6E9001004F000410843706069E7C6E998
:101A4000005466E72DE9FF4F1F464FF0000A4FF0A4
:101A5000FF38454691B0D7E90146CDF83CA0FFF7E5
:101A600065FBC0680168405C1090B96912986D1CF4
:101A70008847396A814688470028F6D1B9F1FF3F87
:101A80000AD0002E24F4D06411DDB9F12B0F08D058
:101A9000B9F12D0F0BD102E0404615B03AE744F4FE
:101AA0008064B96912986D1C8847761E814660056E
:101AB00004A901D52D2000E02B20002E01F1010BFF
:101AC0000DF130088DF810003FDDB9F1690F08D035
:101AD000B9F1490F05D0B9F16E0F02D0B9F14E0F2F
:101AE0001CD13B4601A8009580E85002DDE91212A6
:101AF0006FF0020014F054F8C11CCED10EE0B969A9
:101B000012986D1C884781461398761E44F4007421
:101B100005600F98401C002E0F9016DDB9F1300FB4
:101B2000EDD0B9F1780F02D0B9F1580F0DD10F985F
:101B300001280AD13B46CDE90054DDE91212001F0D
:101B4000029614F02BF8C11CA7D1109989453ED1FB
:101B500044F0800406E01399681CAAF1010A44F4D9
:101B600000740860B9696D1C1298761E8847302889
:101B70008146F0D02BE01099894505D1200603D489
:101B8000761E44F0800418E048460CF092FF08B33B
:101B9000761E0DF123018B4544F4007408D2A9F19F
:101BA00030000BF8010B200607D5AAF1010003E075
:101BB000200602D40AF101008246A00502D513993D
:101BC000681C0860B96912986D1C88478146002E10
:101BD000D1DC53E0002E51DDB9F1650F02D0B9F12F
:101BE000450F4BD1A00549D5B9696D1C1298761ED9
:101BF00024F440748847002E81460CDD2B2804D045
:101C0000B9F12D0F07D144F48074B96912986D1C95
:101C10008847761E8146E00501D52D2100E02B2165
:101C200008F8011BCDF8008021E0761E0DF1390186
:101C3000884544F400740CD2A9F1300010F0FF0084
:101C400088F8000002D10099884509D908F10108F7
:101C500006E0E00501D5244801E042F20F7082461B
:101C6000B96912986D1C8847814613980560002E4B
:101C700004DD48460CF01DFF0028D6D1F969129802
:101C80008847FF2053468BF8000088F800000020AA
:101C90000A900B9004AA0CA90AA8FFF7D5FDA0058D
:101CA00002D46FF00100F8E614F0240F0AD0E00728
:101CB00014D13868DDE90A12031D3B600068C0E9F1
:101CC00000120BE00AA968460CF08AFEE00705D175
:101CD0003868009A011D3960006802602846DCE619
:101CE000486D01003E6C0100F1D8FFFF10B50446BD
:101CF000AFF300802046BDE81040FEF704BB00288B
:101D000001D000F049B8704710B500F065F8BDE8A3
:101D10001040FFF7F4BF00004FF0013C50F8042BD7
:101D200051F8043B9A4221D1A2EB0C03934313EAEE
:101D3000CC1317D150F8042B51F8043B9A4215D11B
:101D4000A2EB0C03934313EACC130BD150F8042BF2
:101D500051F8043B9A4209D1A2EB0C03934313EAD6
:101D6000CC13DBD04FF00000704700BFD01A01BA8F
:101D7000B1FA81F101F0180122FA01F0CB40C1F172
:101D80002001DBB2C0B2C01A2CFA01F3D11A914380
:101D900011EAC311E6D1704701491820ABBEFEE736
:101DA0002600020070B505460C460A2000E06D1CB6
:101DB00000F068F835B128780028F8D102E0641CFA
:101DC00000F060F814B120780028F8D1BDE8704028
:101DD0000A2000F057B8000010B5022803D04101D6
:101DE00003D50DA112E0002010BD010101D50FA106
:101DF0000CE0C10001D511A108E0810001D512A1BC
:101E000004E0400001D513A100E0002115A0FFF778
:101E1000C9FF012010BD0000496E76616C69642025
:101E20004F7065726174696F6E0000004469766975
:101E30006465204279205A65726F00004F766572A2
:101E4000666C6F7700000000556E646572666C6F9B
:101E500077000000496E6578616374205265737580
:101E60006C7400005349474650453A2041726974EA
:101E7000686D6574696320657863657074696F6EF9
:101E80003A20000008B569468DF800000320ABBE7B
:101E900008BD00002DE9FF4F1F464FF03C0987B0F9
:101EA0004FF00042DDE9141001F10108DDF858A0FF
:101EB00002EA405003900020059083460546044600
:101EC0000490B969461E08988847AAF1010A029051
:101ED000BAF1000F3BDD02982E2815D0102100F03A
:101EE00016FA00282EDB4FF0010B0599014317D09D
:101EF000B9F1000F0BDB4A46C11700F0F5F90543B5
:101F00000C43A9F1040905E0012004900BE008B19D
:101F100045F0010501200590049820B9361D02E026
:101F2000049800B1361FB969089808F1010888477C
:101F3000BBF1000FAAF1010A0290C9D00999C1F8BA
:101F40000080C5E70298702808D0502806D0F969AB
:101F500008988847BBF1000F14D04FE00020029092
:101F60000120BBF1000F049009D0B969089808F16D
:101F700001088847AAF10109B9F1000F07DCF969E6
:101F8000089888476FF001000BB0BDE8F08F2B2850
:101F900004D02D280CD14FF0FF300490B969089877
:101FA00008F101088847A9F10109B9F1000FE6DD40
:101FB000411CE4D00A2100F0AAF90028DFDB0299D5
:101FC00008F1010801EB810100EB41000290B969C1
:101FD000089888470A2100F09AF9099AA9F101099D
:101FE000B9F1000FC2F8008001DD0028E7DAF969D5
:101FF000089888470499029800FB016655EA040096
:1020000004D004F04041090002D006E0039898E0B3
:10201000A40044EA9574AD00B61E04F00041080027
:1020200002D16D196441761E159810F0240F03D06B
:102030004FF00B095C4803E04FF028096FF07D007A
:102040008246564507DAAAEB06018944B9F1410FE9
:1020500001DD4FF0410901200021A9F1010200F04A
:1020600043F9024628400B462140084301D0012194
:1020700000E00021501E029143F1FF312840214031
:10208000084301D0012000E000200299834651EA74
:102090000B014FD00021084613F086FC039900F491
:1020A000400039B100EB80004FF4400100EBD070EC
:1020B00001EA60008015012802DD4FF0FF3000E0EA
:1020C00013D0401C36D0029860B3BBF1000F0CD186
:1020D0004A460120002100F007F92840214008432A
:1020E00001D0012000E00020E0B101204A4600219B
:1020F00000F0FAF8034640190A4661412D1A8C4156
:1021000011D3B9F1400F09DD159810F0240F02D05A
:10211000AAF1340603E0AAF1170600E0761C0025B8
:102120004FF0004406E05B1E42F1FF3220EA030557
:1021300021EA0204CAF10100B04206DA1B49039801
:1021400008430190002000900EE0039AC4F3D321CD
:10215000E80A0A43164940EA44500A433146CDE9A9
:10216000000268460CF09BFC159810F0240F0BD071
:102170001598C00715D13868DDE90012031D3B60D2
:102180000068C0E900120CE002A869460CF028FCC7
:102190001598C00705D13868029A011D396000689A
:1021A00002604046F0E6000002FCFFFF0000F07F06
:1021B0000000F03F2DE9FF4F92461D4685B04FF0DD
:1021C0000041DDE9124BDDE914727F1E01EA4B503C
:1021D000414940F0FF4940EA0108002122F0200077
:1021E0004928049102D04E2828D04CE03BA001267B
:1021F00007C88DE80700A9690698641C88477F1EF8
:10220000014606D41DF8060018B121F020018142D4
:102210000BD0E96906988847032E34D0082E32D0B7
:102220006FF0010009B0BDE8F08F761C032E01D0DD
:10223000082EE0D1601CCAF80000DCE7A969069806
:10224000641C88477F1E2AD420F02000412826D114
:10225000A9690698641C88477F1E20D420F02000BE
:102260004E281CD1A9690698641C88477F1E48F433
:10227000002849F48009CAF8004001D4282806D073
:10228000E969069888475FEACB7012D022E0A96915
:102290000698641C88477F1E01D4002803DAE96988
:1022A00006988847BCE72928F1D1641CCAF8004089
:1022B000E9E71BF0240F07D028680499031D2B6061
:1022C0000068C0E9001805E02868021D2A6000685F
:1022D000C0F800902046A5E70000F07F494E46492F
:1022E0004E49545900000000B2F120030AD5C2F152
:1022F000200301FA02F120FA03F300FA02F041EAA6
:102300000301704700FA03F14FF0000070473A28CC
:1023100000D2303820F02002412A01D3A2F1370048
:10232000884201D34FF0FF3070475FEA400C08BF8E
:1023300091F0000F4FEA8C234FEAC12243EA51513A
:102340004FEA1C5018BF00F5F0404FEA300018BFAC
:1023500041F000415FEA6C5C00F02980BCF1FF3F76
:1023600008BF40F080407047130C06BF12044FF0C6
:10237000100C4FF0000C130E04BF12020CF1080CED
:10238000130F04BF12010CF1040C930F04BF920051
:102390000CF1020CD30F04BF52000CF1010C1146DA
:1023A0004FF00002A0F11F00A0EB0C00704711F0ED
:1023B000004F08BF704731F000413FF4D5AF0B0C20
:1023C00006BF09044FF0100C4FF0000C0B0E04BFB9
:1023D00009020CF1080C0B0F04BF09010CF1040CED
:1023E0008B0F04BF89000CF1020CCB0F04BF490016
:1023F0000CF1010CCCF12003A0EB0C0022FA03F34A
:1024000002FA0CF241EA030100F10100704720F0EA
:102410007F4C80EA030023F07F47ACEB070303F512
:102420007C5300F0004003F1FF032DE980494FEA9F
:10243000154B09B44FEA144325EA0B4E24EA03482E
:102440000FF2042606EB132749083E785FEA3202B2
:1024500003FB0667C7F5000707FB06F64FEA54378C
:102460004FEAD64606F1020607FB066CCCF1005C8B
:102470004FEA1C472CEA074C07FB06F40CFB06F559
:1024800004EB15464FEA961634BF00204FF000408B
:102490004FEAD13706FB07FC4FEA1C4C0CFB0BF74D
:1024A000D21B03FB0CF761EB07010CFB0EF7B0EB43
:1024B000074072EB17420CFB08F734BFA2EB074250
:1024C000B2EB074261EB17414FEA0C444FEA910728
:1024D00006FB07FC4FEA1C4C0CFB0BF7B0EBC740AC
:1024E00072EB573203FB0CF734BFA2EBC742B2EBDF
:1024F000C74261EB57310CFB0EF7B0EBC70072EB34
:1025000057720CFB08F734BFA2EBC702B2EBC7024D
:1025100061EB5771039F4FEA816141EA921104EB2D
:10252000CC044FEAD1374FEA826206FB07FC42EA4D
:1025300090124FEA80604FEA1C4C0CFB0BF7D21B49
:1025400003FB0CF761EB07010CFB0EF7B0EB074048
:1025500072EB17420CFB08F734BFA2EB0742B2EB59
:10256000074261EB17414FEA8C554FEA910704EBA4
:102570009C2406FB07FC4FEA1C4C0CFB0BF7B0EB52
:10258000C74072EB573203FB0CF734BFA2EBC742D4
:10259000B2EBC74261EB57310CFB0EF7B0EBC70053
:1025A00072EB57720CFB08F734BFA2EBC702B2EB19
:1025B000C70261EB577115EB4C254FEA816141EA87
:1025C00092114FEA82624FEAD13742EA901206FB3B
:1025D00007FC44F100044FEA80604FEA1C4C0CFBFE
:1025E0000BF7D21B03FB0CF761EB07010CFB0EF79B
:1025F000B0EB074072EB17420CFB08F734BFA2EBBD
:102600000742B2EB074261EB174115EB1C154FEA8D
:10261000813141EA92414FEA823242EA90424FEAE6
:1026200080304FEA0C7644F1000448EA03434EEA56
:102630000B484FF0000EB2EB080C71EB030724BF00
:10264000624639464EEB0E0E4FF0000B0018524119
:1026500049414BEB0B0BB2EB080C71EB03077BF121
:10266000000B24BF624639464EEB0E0E4FF0000BB6
:102670000018524149414BEB0B0BB2EB080C71EBCC
:1026800003077BF1000B24BF624639464EEB0E0E6A
:1026900051EA020718BF46F0010616EB0E7655F117
:1026A000000254F1000103D5BDE88901BDE80088AE
:1026B000BDE88901BDE80048B619524141EB01016E
:1026C000A3F10103704780807F7E7D7C7B7A7978DF
:1026D000777676757473727171706F6E6E6D6C6CE7
:1026E0006B6A6A6968686766666564646363626189
:1026F0006160605F5F5E5E5D5D5C5C5B5B5A5A590A
:102700005958585757565655555554545353525275
:102710005251515050504F4F4F4E4E4D4D4D4C4CCD
:102720004C4B4B4B4A4A4A49494948484847474716
:102730004746464645454544444444434343434253
:10274000424242414141000046EA0646A3F5705329
:102750004FEA164646EA42564FEAD22242EA415230
:1027600010B54FEAD121A3F1010300F017F820F0D2
:10277000004000F1010C00F0004701EB0050114651
:10278000BCF5006F40EA070000D210BD02484FF0D0
:10279000000140EA070010BD0000F07F002B26D4A6
:1027A000770021D01CB54FEA370703B44FF0100073
:1027B0004FF0100113F0F8F80FBCBDE810400BF11A
:1027C000010BBBF1010F08BF5FEA170722BF12F12F
:1027D000010211F101014FF0004143F1000300F04B
:1027E000004043EA00007047F9D35708DAE746EAA9
:1027F000064613F1400F4FEA16461FDD13F1200F76
:10280000DFBF16430A46002120335B42C8D0C3F124
:10281000200746EA064602FA07F74FEA164646EA56
:102820000706C3F1200722FA03F201FA07F721FA9B
:1028300003F14FF0000342EA0702B1E746EA02065D
:1028400046EA06464FEA164646EA0106BCBF46EA95
:102850000646360C4FF000034FF000024FF0000127
:102860009EE72DE9C048934630B491E8380007C888
:1028700031EA400C48BF34EA430C03D5FFF7C7FDEB
:10288000FFF78CFFF0BCBDE800882DE9C0489346F7
:1028900030B491E8380007C831EA400C48BF34EA48
:1028A000430C03D5FFF7B3FDFFF74EFFF0BCBDE8C7
:1028B00000882DE9C048934630B491E8380007C835
:1028C00010F0804F08BF13F0804F03D100F019F8CB
:1028D000FFF764FFF0BCBDE800882DE9C0489346CF
:1028E00030B491E8380007C810F0804F08BF13F0EB
:1028F000804F03D100F005F8FFF726FFF0BCBDE8DC
:10290000008820F07F4780EA030023F07F4C07EB2C
:102910000C03A3F57C5300F00040A3F1FE0392F0FA
:10292000000F00F0B38095F0000F00F077802DE9E4
:1029300001494FEA11404FEA144621EA004800FBE2
:1029400006FC24EA064708FB06F607FB08F800FB2E
:1029500007F718EB06484CEB164C4FEA124B18EBF6
:1029600007484FEA15464CEB174022EA0B4E0BFB8B
:1029700006FC25EA06470EFB06F607FB0EFE0BFBE0
:1029800007F71EEB064E4CEB164C4FF000061EEB05
:10299000074E4CEB174B18EB0B0840F1000018EBFF
:1029A0000E0B58EB000840F100008F1A4FF00001A9
:1029B0003CBFC943661B14BFB5EB040C00213CBFF0
:1029C000C943F61B4FEA17444EEA8E0E27EA044528
:1029D0004FEA1C4704FB07622CEA074C05FB07F78C
:1029E0000CFB05F604FB0CFC16EB074642EB17420A
:1029F00016EB0C4642EB1C421BEB060658EB0202A0
:102A0000414146EA9E0601D5BDE80189B619524109
:102A100041EB0101A3F10103BDE801894FEA14452F
:102A20004FEA114724EA054621EA074C05FB07F463
:102A300006FB07F70CFB06F105FB0CFC11EB07414D
:102A400044EB17444FEA124711EB0C4144EB1C4492
:102A500022EA074C05FB07F206FB07F70CFB06F61C
:102A600005FB0CFC16EB074642EB174216EB0C4637
:102A700042EB1C456A1854F1000148BF7047B61973
:102A8000524141EB0101A3F10103704795F0000FA2
:102A900037D04FEA11424FEA144721EA024624EAAE
:102AA000074C02FB07F106FB07F70CFB06F402FBE1
:102AB0000CFC14EB074441EB17414FEA154714EBAC
:102AC0000C4441EB1C4125EA074C02FB07F506FBD1
:102AD00007F70CFB06F602FB0CFC16EB074645EB72
:102AE000174516EB0C4645EB1C42121951F100013B
:102AF00048BF7047B619524141EB0101A3F10103F0
:102B000070474FEA14454FEA114724EA054621EA87
:102B1000074C05FB07F106FB07F70CFB06F24FF02D
:102B2000000605FB0CFC12EB074241EB174112EBD0
:102B30000C4251EB1C4148BF7047921841EB010118
:102B4000A3F10103704700004A494A6822F4403269
:102B50004A604A6843681A434A6001684A6822F436
:102B600080724A6001684A68036942EA03224A6047
:102B700001684A6822F040724A6001684A688368C6
:102B80001A434A6001688A6822F400628A60016818
:102B90008A68C3681A438A60816A6FF07062D142A2
:102BA00014D001688A6822F070628A6001688A68BD
:102BB000836A1A438A6001688A6822F040528A60F8
:102BC00001688A68C36A1A438A6009E001688A68F2
:102BD00022F070628A6001688A6822F040528A603E
:102BE00001688A6822F002028A6001688A68037EAE
:102BF00042EA43028A6090F8201089B101684A686D
:102C000042F400624A6001684A6822F460424A6005
:102C100001684A68436A5B1E42EA43324A6004E044
:102C200001684A6822F400624A600168CA6A22F4B4
:102C30007002CA620168CA6A838B5B1E42EA035251
:102C4000CA6201688A6822F400728A6001688A6830
:102C500090F8303042EA43228A6001688A6822F4A0
:102C600080628A6001688A68406942EA80208860E0
:102C7000704700000023014000BFFEE710B5024886
:102C800001F0BFF910BD0000B80B002010B50248DC
:102C900001F0B7F910BD0000E00B0020F8B50746C1
:102CA0000C4615461E464FF400700D490860002082
:102CB0008860C86008200861380A0A4908704F70A7
:102CC000200A8870CC70280A08714D71300A88710A
:102CD000CE716B460A460249034800F0C5FFF8BDB5
:102CE0005C30002018010020B80B00202DE9F041D5
:102CF00006460C4617461D460F48046000200E4944
:102D000048608860C8600846056101233A4630463D
:102D100000F0AAFF60B102233A460749304600F0AE
:102D2000A3FF28B104233A460349304600F09CFF34
:102D30000020BDE8F0810000A83300200346042BEA
:102D400015D007DC7BB1012B0ED0022B0DD0032B4D
:102D500012D10BE0202B0BD0212B0AD0222B09D033
:102D6000232B09D107E008E007E006E005E004E0D6
:102D700003E002E001E000E000BF00BF0020704778
:102D80000020704710B500220449054809F0DEFE16
:102D90000449034809F0CCFE002010BD4426002061
:102DA0003C120020441E002070B504460D4621460A
:102DB000054809F0BDFE044809F08AFE204629684E
:102DC00000F004F8002070BD3C12002070B50546EC
:102DD0000E46002403E0285D10F0B0FA641CB442F3
:102DE000F9D370BD10B503460C460021084610BD4E
:102DF00010B5024801F018FE10BD00007C11002043
:102E000010B5FE48C06C0068FD49884276D9FC4880
:102E100054380068F949C96C0968FA4A914201D1ED
:102E2000202169E0F549C96C0968F54A483A9142A0
:102E300001D1202160E0F149C96C0968F14A603292
:102E4000914201D1202157E0EC49C96C0968EC4A54
:102E50001832914201D120214EE0E849C96C09683D
:102E6000E84A1832914201D1C91445E0E349C96CDE
:102E70000968E34A303A914201D1C9143CE0DF4984
:102E8000C96C0968DF4A7832914201D1C91433E034
:102E9000DA49C96C0968DA4A3032914201D1C91461
:102EA0002AE0D649C96C0968D64A3032914202D12B
:102EB0004FF4001120E0D149C96C0968D04A183A92
:102EC000914202D14FF4001116E0CC49C96C096857
:102ED000CC4A9032914202D14FF400110CE0C74924
:102EE000C96C0968C64A4832914203D14FF40011B7
:102EF00002E003E04FF00061084070E1BF48C06CA1
:102F00000068C049A831884276D9BD485838006861
:102F1000BA49C96C0968BB4A914201D1202169E0D4
:102F2000B649C96C0968B64A483A914201D1202194
:102F300060E0B249C96C0968B24A6032914201D17D
:102F4000202157E0AD49C96C0968AD4A1832914259
:102F500001D120214EE0A949C96C0968A94A18325B
:102F6000914201D1C91445E0A449C96C0968A44A39
:102F7000303A914201D1C9143CE0A049C96C0968BA
:102F8000A04A7832914201D1C91433E09B49C96CFF
:102F900009689B4A3032914201D1C9142AE097490D
:102FA000C96C0968974A3032914202D14FF400113E
:102FB00020E09249C96C0968914A183A914202D1BD
:102FC0004FF4001116E08D49C96C09688D4A9032A2
:102FD000914202D14FF400110CE08849C96C096894
:102FE000874A4832914203D14FF4001102E003E0D6
:102FF0004FF000610840F2E08048C06C00688149F1
:103000004831884276D97F48103840687B49C96C7E
:1030100009687C4A914201D1202169E07749C96C55
:103020000968774A483A914201D1202160E073490A
:10303000C96C0968734A6032914201D1202157E07E
:103040006E49C96C09686E4A1832914201D120213B
:103050004EE06A49C96C09686A4A1832914201D146
:10306000C91445E06549C96C0968654A303A91421E
:1030700001D1C9143CE06149C96C0968614A7832E0
:10308000914201D1C91433E05C49C96C09685C4ABA
:103090003032914201D1C9142AE05849C96C0968FB
:1030A000584A3032914202D14FF4001120E0534986
:1030B000C96C0968524A183A914202D14FF4001182
:1030C00016E04E49C96C09684E4A9032914202D1CD
:1030D0004FF400110CE04949C96C0968484A48326C
:1030E000914203D14FF4001102E003E04FF0006180
:1030F000084074E04348103800684049C96C0968CA
:10310000404A914201D1202168E03C49C96C0968DC
:103110003B4A483A914201D120215FE03749C96CCE
:103120000968384A6032914201D1202156E0334982
:10313000C96C0968324A1832914201D120214DE010
:103140002E49C96C09682F4A1832914201D1C9141D
:1031500044E02A49C96C0968294A303A914201D1B0
:10316000C9143BE02549C96C0968264A7832914266
:1031700001D1C91432E02149C96C0968204A3032B2
:10318000914201D1C91429E01C49C96C09681D4A42
:103190003032914202D14FF400111FE01749C96C3F
:1031A0000968174A183A914202D14FF4001115E00C
:1031B0001249C96C0968134A9032914202D14FF406
:1031C00000110BE00D49C96C09680D4A4832914263
:1031D00002D14FF4001101E04FF0006108400028D7
:1031E0006FD00648C06C0068054988427BD9034807
:1031F000C06C00680349884208D105E0E00C00205B
:103200005864024010600240202068E0FE48C06C14
:103210000068FE49884201D1202060E0FA48C06C75
:103220000068FB49884201D1202058E0F648C06C74
:103230000068F6496031884201D120204FE0F24811
:10324000C06C0068F2494839884201D1C01446E098
:10325000ED48C06C0068ED491831884201D1C014B6
:103260003DE0E948C06C0068E9491831884201D165
:10327000C01434E0E448C06C0068E4497831884206
:1032800001D1C0142BE0E048C06C0068E04930393F
:10329000884202D14FF4001021E0DB48C06C006886
:1032A000DA493031884202D14FF4001017E0D64895
:1032B000C06C0068D6493031884204D14FF4001008
:1032C0000DE0DFE10FE0D048C06C0068CF499031DD
:1032D000884202D14FF4001001E04FF00060CB496A
:1032E000091F08606AE1C848C06C0068C8494831D5
:1032F000884274D9C448C06C0068C54960398842A6
:1033000001D1202066E0C048C06C0068BF498842F7
:1033100001D120205EE0BC48C06C0068BC498842F6
:1033200001D1202056E0B848C06C0068B749603130
:10333000884201D120204DE0B348C06C0068B449F8
:103340004839884201D1C01444E0AF48C06C0068DD
:10335000AE491831884201D1C0143BE0AA48C06C84
:103360000068AB491831884201D1C01432E0A64848
:10337000C06C0068A5497831884201D1C01429E0A9
:10338000A148C06C0068A2493039884202D14FF48C
:1033900000101FE09C48C06C00689C493031884296
:1033A00002D14FF4001015E09748C06C00689849AE
:1033B0003031884202D14FF400100BE09248C06CCB
:1033C000006892499031884202D14FF4001001E028
:1033D0004FF000608D4908390860EFE0FFE78A4848
:1033E000C06C00688A491839884274D98648C06C14
:1033F000006887496039884201D1202066E0824810
:10340000C06C00688149884201D120205EE07E487E
:10341000C06C00687E49884201D1202056E07A487D
:10342000C06C006879496031884201D120204DE0AC
:103430007548C06C006876494839884201D1C0148B
:1034400044E07148C06C006870491831884201D16D
:10345000C0143BE06C48C06C00686D49183188426C
:1034600001D1C01432E06848C06C00686749783107
:10347000884201D1C01429E06348C06C00686449E7
:103480003039884202D14FF400101FE05E48C06C12
:1034900000685E493031884202D14FF4001015E0D7
:1034A0005948C06C00685A493031884202D14FF403
:1034B00000100BE05448C06C0068544990318842B9
:1034C00002D14FF4001001E04FF000605049703914
:1034D000C86073E0FFE74C48C06C00684C49603935
:1034E000884201D1202066E04748C06C0068474907
:1034F000884201D120205EE04348C06C0068444906
:10350000884201D1202056E03F48C06C00683F4906
:103510006031884201D120204DE03B48C06C0068FA
:103520003B494839884201D1C01444E03648C06C58
:10353000006836491831884201D1C0143BE0324856
:10354000C06C006832491831884201D1C01432E0A1
:103550002D48C06C00682D497831884201D1C014D3
:1035600029E02948C06C006829493039884202D1D5
:103570004FF400101FE02448C06C0068234930312C
:10358000884202D14FF4001015E01F48C06C00685B
:103590001F493031884202D14FF400100BE01A4825
:1035A000C06C006819499031884202D14FF4001074
:1035B00001E04FF0006016497039886015480078C6
:1035C00000F0020078B11348007820F002001149A1
:1035D00008700846007840F0040008700122114687
:1035E0000D4801F01FFD0D48007800F00200E0B129
:1035F0000A48007820F00200084908700846007860
:1036000040F0040008700BE0E00C00201064024061
:10361000706002403D020020000402403E02002093
:1036200001221021184801F0FDFC1848007800F034
:10363000020078B11548007820F0020013490870A4
:103640000846007840F004000870012210210E485E
:1036500001F0E8FC0EF060FA0D48007800F004007C
:1036600080B10B48007820F0040009490870084632
:10367000007840F0080008700648006840F001003B
:103680000449086010BD0000000002403F02002015
:103690003D020020103C014010B5024801F0C4F981
:1036A00010BD0000DC11002010B5024801F0BCF98B
:1036B00010BD0000BC10002001680A4BCAB2103ACD
:1036C000A3FB02321209084B9B5CC365032A04D991
:1036D0006FF30901091D816502E06FF3090181653E
:1036E000806D7047ABAAAAAAFE840108014600209B
:1036F0008A6A8B69002B0FD0B3F5005F1DD08AB3A7
:10370000012A30D0022A2ED0032A04D1C96A11F02E
:10371000807F00D0012070471AB1012A07D0022A09
:10372000F9D1C96A11F0807FF5D001207047C96ACC
:10373000B1F1C07FFAD1012070475AB1012A0BD0F4
:10374000022A07D0032AF7D1C96AB1F1C07FF3D1A9
:103750000120704701207047C96A11F0807FFAD0BC
:1037600001207047FFE701207047704710B5012026
:1037700001F036FB10BD10B5082001F031FB10BD83
:1037800010B5102001F02CFB10BD10B5202001F069
:1037900027FB10BD7047000070B50A480468001D83
:1037A0000568001D0668344454B1082206492046C5
:1037B00004F0ACFB042204491031284604F0A6FBB7
:1037C00070BD0000107AFF1F76000020014890EDC8
:1037D000000A70472C03002038B44FF0000CCDF8DD
:1037E00000C090F83C20012A1BD0012280F83C2028
:1037F0000A680724092A17D90368DD680A3A02EB28
:10380000420204FA02F225EA0202DA600A788B68C0
:103810000A3A02EB420293400268D4682343D36021
:1038200014E038BC0220704703681D6902EB4202B5
:1038300004FA02F225EA02021A610A788B6802EBA6
:103840004202934002681469234313614A681F24AB
:10385000072A15D203685D6B521E02EB820204FA3E
:1038600002F225EA02025A630A8893B20A79521ECA
:1038700002EB820293400268546B234353632CE0B3
:103880000D2A15D203681D6BD21F02EB820204FAC7
:1038900002F225EA02021A630A8893B20A79D21F59
:1038A00002EB820293400268146B2343136314E01B
:1038B0000368DD6A0D3A02EB820204FA02F225EA9D
:1038C0000202DA620A8893B20A790D3A02EB8202A6
:1038D00093400268D46A2343D362184A184B0468A1
:1038E0009C4206D10C68122C03D1546844F4800425
:1038F000546004689C421CD10B68102B01D0112B22
:1039000017D1536843F4000353600968102910D19C
:103910000C490D4A0968B1FBF2F101EB8101490044
:103920000091009929B10099491E00910099002940
:10393000F9D180F83CC038BC00207047002301401A
:1039400000200140A400002040420F000068C06C2D
:10395000704770B504460025002C03D0206C00266B
:1039600010B107E0012070BD204600F01DF866642C
:1039700084F83C60206C10F0100F04D0012584F80E
:103980003C60284670BD206C20F4885040F0020056
:1039900020642046FFF7D8F86664206C20F002000F
:1039A00040F001002064EAE710B586B00446142117
:1039B00001A8FCF734FF2349206888420FD100BFDB
:1039C000002000902048006840F480701E49086084
:1039D0000846006800F48070009000BF2FE01B498B
:1039E000206888422BD100BF002000901648006854
:1039F00040F48060144908600846006800F4806064
:103A0000009000BF00BF00BF002000900E48143897
:103A1000006840F020000C4914390860084600682E
:103A200000F02000009000BF00BF081501900320A7
:103A300002900020039001A9054801F0DDF906B0CD
:103A400010BD000000200140443802400022014027
:103A5000001402402DE9F04104460D4620688168BB
:103A60004FF0000711F4806F0CD0806810F4807F55
:103A700008D0206C40F02000206484F83C700120C5
:103A8000BDE8F08101F0D6FA06462068006810F023
:103A9000020F12D1B5F1FF3F0AD025B101F0CAFAE9
:103AA000801BA84204D92068006810F0020F12D0D1
:103AB0002068006810F0020FECD021686FF012004F
:103AC0000860206C40F4007020642068816811F068
:103AD000405F09D01EE0206C40F00400206484F8B0
:103AE0003C700320BDE8F081217E99B9C16A11F4D0
:103AF000700F03D0806810F4806F0BD1206C20F41D
:103B000080702064206C10F4805F03D1206C40F042
:103B1000010020640020BDE8F081000081B0002297
:103B2000009290F83C10012908D0012180F83C1047
:103B300001688B6813F0010F03D016E0022001B07A
:103B400070478B6843F001038B603949394B096832
:103B5000B1FBF3F101EB41010091009929B100990A
:103B6000491E009100990029F9D101688B6813F072
:103B7000010F52D0036C23F0010323F4C06343F41C
:103B8000807303644B6813F4806F05D0036C23F4D7
:103B9000005343F480530364036C13F4805F04D038
:103BA000436C23F00603436400E0426480F83C2049
:103BB000214A6FF022030B60516811F01F0F1F495B
:103BC00007D00068884230D1816811F0405F1FD073
:103BD0002BE00068884212D0194A904204D1D1F8F3
:103BE000042312F01F0F0AD0A0F18042B2F59132E7
:103BF0001BD1D1F8041301F01F01102915D28168DF
:103C000011F0405F11D1816841F0804181600CE08A
:103C1000816841F08041816007E0016C41F0100152
:103C20000164416C41F001014164002001B0704722
:103C3000A400002040420F0000230140002001406A
:103C40000021014090F82020012A07D0022A05D047
:103C5000416A41F480214162012070470068426955
:103C6000114341610020704770B490F82040D0F8B3
:103C700000C0DCF808C0012C08D0022C06D0416A34
:103C800041F48021416270BC012070470CF08064D7
:103C90000CF000652C4302D11CF0805F5FD0CCF3A8
:103CA000016CBCF1020F06D9416A41F40001416286
:103CB00070BC01207047012404FA0CF41C608B686E
:103CC0004FF4C0749BB1CD6804EB0C162B434D68C8
:103CD00043EAC5030568AB514FF4C273066803EBB2
:103CE0000C130D69F550097D012909D00DE00D88EF
:103CF000CB6804EB0C1643EA45530568AB51EBE780
:103D00000168CD5845F48075CD501179D379557936
:103D100041EA036193791B0443EA052319434FF4F5
:103D2000C675036805EB0C1559511178D37841EA33
:103D30000361937852781B0443EA022211434FF443
:103D4000C473026803EB0C13D150016804EB0C1030
:103D50000A5842F001020A5070BC00207047416AC4
:103D600041F40011416270BC0120704790F820209E
:103D7000012A07D0022A05D0416A41F4802141621C
:103D8000012070474248D0F8002242F00102C0F8FA
:103D90000022D0F8002222F47C52C0F80022D0F891
:103DA00000224B6A42EA0322C0F800220A7D012366
:103DB00002F01F0203FA02F2D0F81C329343C0F85B
:103DC0001C32CB69D3B9D0F80C329343C0F80C3213
:103DD000B1F80CC04B686CF31F43D1F814C000EB72
:103DE000CC0CCCF84032B1F808C00B686CF31F4320
:103DF000D1F814C000EBCC0CCCF84432CB69012BC9
:103E00001AD1D0F80C321343C0F80C32B1F800C00C
:103E10004B686CF31F43D1F814C000EBCC0CCCF80A
:103E20004032B1F808C0CB686CF31F43D1F814C01E
:103E300000EBCC0CCCF844328B697BB1D0F8043267
:103E40001343C0F804320B6973B1D0F81432134332
:103E5000C0F81432096A01290CD010E0D0F80432FD
:103E60009343C0F80432EEE7D0F814329343C0F81D
:103E70001432EFE7D0F81C121143C0F81C12D0F82E
:103E8000001221F00101C0F800120020704700006C
:103E900000640040704710B490F820C0BCF1010FDE
:103EA00009D0BCF1020F06D0416A41F48021416281
:103EB00010BC0120704739B1D0F800C0DCF810C048
:103EC0001CF0030F7DD006E0D0F800C0DCF80CC079
:103ED0001CF0030F7BD04FF4D87C04680CEB011C62
:103EE00054F80C4004F004049460002C7DD0046865
:103EF00054F80C40E4085460046854F80CC00CF00A
:103F0000020CC2F80CC04FF4DA7C04680CEB011C04
:103F100054F80C4004F00F041461046854F80C4089
:103F2000C4F307249461046854F80CC04FEA1C4C95
:103F3000C2F814C04FF4DC72D0F800C002EB0112DA
:103F40005CF802C083F800C0D0F800C05CF802C082
:103F50004FEA1C2C83F801C0D0F800C05CF802C006
:103F60004FEA1C4C83F802C0D0F800C05CF8022075
:103F7000120EDA704FF4DE72D0F800C002EB0112BC
:103F80005CF802C083F804C0D0F800C05CF802C03E
:103F90004FEA1C2C83F805C0D0F800C05CF802C0C2
:103FA0004FEA1C4C83F806C0D0F800C05CF8022031
:103FB000120EDA71F9B10068016941F02001016166
:103FC00002E00BE003E010E010BC00207047416A03
:103FD00041F40011416210BC01207047416A41F474
:103FE0000011416210BC01207047046854F80C4075
:103FF000640D146080E70068C16841F02001C16071
:10400000DEE72DE9F05F0546002428684669D0F810
:1040100004908768D0F80CA0D0F810B0D0F81880C1
:1040200016F0010F54D017F0010F17D00121816055
:1040300017F0020F03D0284600F060FC0EE017F0E6
:10404000040F02D04FF4006408E017F0080F02D00C
:104050004FF4805402E0284600F04FFC17F4807FB4
:1040600019D029684FF48070886017F4007F03D05E
:10407000284600F045FC0EE017F4806F02D044F4AF
:10408000005408E017F4006F02D044F4804402E0CA
:10409000284600F034FC17F4803F19D029684FF40B
:1040A0008030886017F4003F03D0284600F02AFCD7
:1040B0000EE017F4802F02D044F4004408E017F417
:1040C000002F02D044F4803402E0284600F019FCAE
:1040D00016F0080F07D01AF0100F04D044F4007443
:1040E00029681020C86016F0040F4FF0080707D0A9
:1040F0001AF0080F04D02868C760284600F000FABC
:1041000016F0020F07D02868C06810F0030F02D025
:10411000284600F0F7F916F0400F07D01BF0100FFB
:1041200004D044F4806429681020086116F0200F40
:1041300007D01BF0080F04D028680761284600F05C
:10414000A7FB16F0100F07D02868006910F0030FC6
:1041500002D0284600F09DFB16F4003F08D019F06D
:10416000100F05D0296810204860284600F092FB07
:1041700016F4803F07D019F0080F04D02868476074
:10418000284600F0C0FB16F4004F4AD019F0040F87
:1041900044D016F4807F04D018F0010F01D044F011
:1041A000010416F4007F04D018F0020F01D044F08F
:1041B000020416F4806F04D018F0040F01D044F00C
:1041C000040416F4006F29D018F0700F26D008F000
:1041D0007000402815D006DC102809D020280AD00D
:1041E000302816D10AE050280ED0602811D10EE0F8
:1041F00044F008040DE044F010040AE044F0200408
:1042000007E044F0400404E044F0800401E044F49A
:1042100080742868816921F0700181612968042017
:104220004860002C05D0686A204368622846FFF782
:1042300031FEBDE8F09F70B50446002C03D094F821
:10424000200010B104E0012070BD204600F0A8F865
:104250002068016841F00101016000F0EBFE0546B5
:10426000206840684FF0050610F0010F11D100F0F2
:10427000E1FE401B0A2807D9606A40F40030606202
:1042800084F82060012070BD2068406810F0010FA4
:10429000EDD02068016821F00201016000F0CAFE43
:1042A00005462068406810F0020F11D000F0C2FEF1
:1042B000401B0A2807D9606A40F40030606284F825
:1042C0002060012070BD2068406810F0020FEDD121
:1042D000207E01283FD02068016821F08001016024
:1042E000607E01283DD02068016821F04001016016
:1042F000A07E01283BD02068016821F020010160E8
:10430000E07E012839D02068016841F01001016089
:10431000207F012837D02068016821F00801016062
:10432000607F012835D02068016821F00401016018
:10433000E168A06862690843216911430843616824
:10434000491E08432168C86100206062012084F88A
:104350002000002070BD2068016841F080010160EC
:10436000BEE72068016841F040010160C0E72068B5
:10437000016841F020010160C2E72068016821F076
:1043800010010160C4E72068016841F00801016084
:10439000C6E72068016841F004010160C8E7000039
:1043A00010B586B00446142101A8FCF738FA4E492E
:1043B0002068884241D14D480068401C4B49086044
:1043C0000846006801280FD100BF0020009048482F
:1043D000006840F00070464908600846006800F038
:1043E0000070009000BF00BF00BF00200090404858
:1043F0001038006840F008003D4910390860084650
:10440000006800F00800009000BF00BF032001908A
:1044100002200290002003900320049009200590C0
:1044200001A9344800F0E8FC00220621142001F024
:104430002DF8142001F01CF854E02F492068884220
:1044400050D100BF002000902948006840F08060F3
:10445000274908600846006800F08060009000BFAF
:1044600000BF22480068401C2049086008460068D8
:1044700001280FD100BF002000901D48006840F0C7
:1044800000701B4908600846006800F0007000904A
:1044900000BF00BF00BF0020009015481038006822
:1044A00040F002001249103908600846006800F028
:1044B0000200009000BF00BF602001900220029027
:1044C00000200390032004900920059001A90B48C7
:1044D00000F092FC00220621402000F0D7FF40208F
:1044E00000F0C6FF06B010BD00640040340000209C
:1044F00040380240000C02400068004000040240C6
:10450000704700001CB504466B46D74A0021204680
:10451000FFF7C1FCD54884425DD1D3480068A0F2C2
:10452000012030B1012805D0022804D0032850D141
:1045300002E000BF00BF00BFCB480078401ECC495E
:1045400008700846007800EB4000CA4931F82000A6
:1045500000B2C749097801EB4101C64A02EB81016B
:1045600048819DF801009DF8001040EA0120C049F3
:10457000097801EB410122F821009DF803009DF824
:10458000021040EA012000B2B949097801EB41016B
:1045900002EB810188809DF805009DF8041040EA37
:1045A000012000B2B249097801EB410102EB81011F
:1045B000C8809DF80600AE49097801EB410102EB85
:1045C00081010872AA490978491CC8B20CF0A4FFFD
:1045D00000E000BF00BFA84884427DD1A248006827
:1045E00040F20122811A90420ED006DC00285BD0F6
:1045F000012872D0022871D1EAE0012905D00229F0
:1046000004D00329F7D102E000BF00BF00BF9648E5
:104610000078401E994908700846007800EB400079
:10462000974931F8200000B29449097801EB410123
:10463000934A02EB810148819DF801009DF800102A
:1046400040EA01208D49097801EB410122F821005F
:104650009DF803009DF8021040EA012000B287494E
:10466000097801EB410102EB810188809DF805008A
:104670009DF8041040EA012000B28049097801EB5E
:10468000410102EB8101C8809DF806007B49097851
:1046900001EB410102EB8101087278490978491C5C
:1046A000C8B20CF039FFDDE09DF8000075490870D4
:1046B0009DF800000009C8709DF802009DF80110E7
:1046C00040EA01206F4988609DF8030000019DF8D1
:1046D000041040EA211002E0C5E030E0C1E0694981
:1046E00048619DF805009DF8041001F00F0140EAB3
:1046F00001206449086288681021F2EE090ABAEEC6
:10470000090A0EF0FBFC5F4880ED0B0A0146486980
:104710000C21DFED5D0A9FED5D0A0EF0EFFC5948BC
:1047200080ED0E0A0146086A0C21F3EE020ABBEE88
:10473000020A0EF0E3FC534880ED110A92E09DF866
:104740000000504948709DF8000001094D48017172
:104750009DF802009DF8011040EA01214948C1601E
:104760009DF8030000019DF8041040EA211145481E
:1047700081619DF805009DF8041001F00F0140EAE9
:104780000121404841620146C8681021F2EE090A41
:10479000BAEE090A0EF0B2FC3A4880ED0C0A014666
:1047A00088690C21DFED380A9FED380A0EF0A6FC6F
:1047B000344880ED0F0A0146486A0C21F3EE020AE4
:1047C000BBEE020A0EF09AFC2E4880ED120A49E078
:1047D0009DF800002B4988709DF8000001092948C8
:1047E00041719DF802009DF8011040EA0121254821
:1047F00001619DF8030000019DF8041040EA2111B9
:104800002048C1619DF805009DF8041001F00F01DA
:1048100040EA01211B488162014608691021F2EE3D
:10482000090ABAEE090A0EF069FC164880ED0D0A75
:104830000146C8690C21DFED140A9FED140A0EF041
:104840005DFC104880ED100A0146886A0C21F3EEE9
:10485000020ABBEE020A0EF051FC0A4880ED130A70
:1048600000E000BF00BF1CBD20310020B80B0020BD
:1048700030010020B42F0020E00B00203101002087
:10488000FC2F0020A430002000003442000034C27D
:1048900070477047704770B5044694F820000128AF
:1048A00005D0606A40F400206062012070BD0220E3
:1048B00084F820002068016821F00101016000F007
:1048C000B9FB05462068406810F0010F12D000F0D7
:1048D000B1FB401B0A2808D9606A40F400306062CE
:1048E000052084F82000012070BD2068406810F089
:1048F000010FECD10020606270BD704770477047B7
:10490000704770477047704710B50446002C02D0BE
:10491000607910B106E0012010BD00202071204612
:1049200000F004F801206071002010BD08B50A4AAB
:10493000016891420FD100BF002100910749096829
:1049400041F48051054A11601146096801F4805113
:10495000009100BF00BF08BD003002403038024067
:104960002DE9F0410446A66D00F064FB054694F87D
:1049700035000027022806D08020606584F8347056
:104980000120BDE8F0812068016821F01601016076
:104990002068416921F080014161206C08B9A06C58
:1049A00020B12068016821F00801016020680168D9
:1049B00021F0010101602068006810F0010F12D0A1
:1049C00000F038FB401B052808D920206065032033
:1049D00084F8350084F83470BDE8F0812068006800
:1049E00010F0010FECD194F85C003F2101FA00F0C7
:1049F000B060012084F8350084F834700020BDE8F0
:104A0000F08190F83510022903D080214165012002
:104A10007047052180F835100068016821F0010118
:104A200001600020704700002DE9F84304464FF074
:104A30000008CDF8008076484FF416510068B0FBAE
:104A4000F1F7A56D2E6894F85C00082101FA00F0DA
:104A5000304211D02068026812F0040F0CD00268B6
:104A600022F00402026094F85C0001FA00F0A860F1
:104A7000606D40F00100606594F85C004FF0010942
:104A800009FA00F0304209D02168496911F0800F1D
:104A900004D0A860606D40F00200606594F85C107E
:104AA00004208840304209D02168096811F0020FC3
:104AB00004D0A860606D40F00400606594F85C105C
:104AC00010208840304224D02168096811F0080F76
:104AD0001FD0A8602068016811F4802F0DD00068F5
:104AE00010F4002F04D0A16C99B12046884710E043
:104AF000216C71B1204688470BE0016811F4807F7A
:104B000003D1016821F008010160216C09B1204640
:104B1000884794F85C1020208840304251D02168AA
:104B2000096811F0100F4CD0A86094F835000528E2
:104B30000DD02068016811F4802F32D0006810F485
:104B4000002F29D0E16B59B32046884739E020680F
:104B5000016821F0160101602068416921F080019F
:104B60004161206C08B9A06C20B12068016821F077
:104B70000801016094F85C003F2101FA00F0A86090
:104B800084F8359084F83480216D00293ED001B03E
:104B90002046BDE8F0430847616C09B120468847CC
:104BA0000FE0016811F4807F07D1016821F0100146
:104BB000016084F8359084F83480E16B09B12046B7
:104BC0008847606D002821D0606D10F0010F15D06E
:104BD000052084F835002068016821F0010101609A
:104BE0000098401C0090B84204D82068006810F07B
:104BF000010FF5D184F8359084F83480E16C0029F8
:104C000004D001B02046BDE8F0430847BDE8F88372
:104C1000A40000202DE9F041044600F00BFA0546FF
:104C2000DCB1022084F83500002684F83460206866
:104C3000016821F0010101602068006810F0010F97
:104C400013D000F0F7F9401B052809D92020606532
:104C5000032084F83500BDE8F0810120BDE8F08133
:104C60002068006810F0010FEBD121680868234A22
:104C70001040A3686268D4F810C01A43E36843EA9E
:104C80000C031A4363691A43A3691A43E3691A437D
:104C9000236A1A431043626A042A03D1236BE26A2F
:104CA0001A43104308602068406920F00701606AD9
:104CB00040EA0105012704280ED1A06A0543E06AF5
:104CC00050B12046FEF712FD30B14020606584F8F7
:104CD00035700120BDE8F081206845612046FEF76F
:104CE000EBFC94F85C103F2202FA01F181606665EA
:104CF00084F835700020BDE8F08100003F8010F09E
:104D000070B5044600F096F90546B4F1FF3F02D0B5
:104D100004480078044400F08DF9401BA042FAD307
:104D200070BD00006803002010B50446102C14D19B
:104D300009200CF0F1FB2248007840F001002049E6
:104D400008702048007840F001001E4908701E4895
:104D50000078A0B30CF0E0FE31E0202C0ED108204A
:104D60000CF0DAFB1948007840F001001749087090
:104D70001548007818B30CF0CFFE20E0082C09D1BC
:104D80000A200CF0C9FB1248007840F001001049DD
:104D9000087014E0012C12D10FF0B4F901280ED0E4
:104DA0000C490D4800680EF0EFFC0A48006830B16D
:104DB00020070A490860BFF34F8FBFF36F8F10BD04
:104DC0003E0200203F020020410200203D02002060
:104DD00040020020B40200201802002004ED00E090
:104DE00010B504490A68024202D00860FFF79CFF30
:104DF00010BD0000143C01402DE9F84F0022DFF8FF
:104E000018A2DFF810924FF0010E03274FF00F08A1
:104E1000AAF1040B0EFA02FC0B6803EA0C036345CB
:104E20007DD10C7904F00304012C01D0022C14D1A3
:104E30008568540007FA04F6B543CE6806FA04F410
:104E40002C438460446824EA0C0C0C79C4F30014ED
:104E5000944044EA0C0CC0F804C0D1F804C037EA0E
:104E60000C0C0CD0C4684FEA420C07FA0CF5AC43AA
:104E70008D6805FA0CFC4CEA040CC0F80CC091F8E3
:104E800004C00CF0030CBCF1020F12D14FEAD20C9B
:104E900000EB8C04256A4FEA427C4FEADC6C08FA8E
:104EA0000CF6B5430E6906FA0CFC4CEA050CC4F886
:104EB00020C004684FEA420C07FA0CF5AC430D79A8
:104EC00005F0030505FA0CFC4CEA040CC0F800C020
:104ED000D1F804C01CF4403F7DD0D9F800C04CF498
:104EE000804CC9F800C0D9F800C00CF4804CCDF853
:104EF00000C022F0030C0CF1804505F59835D5F87B
:104F000008C89407240F08FA04F62CEA0606A0F154
:104F1000804CBCF5003C64D0A0F1804C00E05AE02D
:104F2000BCF5013C60D0A0F1804CBCF5023C5ED0E9
:104F3000A0F1804CBCF5033C5CD0A0F1804CBCF5EA
:104F4000043C5AD0A0F1804CBCF5053C58D0A0F1EF
:104F5000804CBCF5063C56D0A0F1804CBCF5073C1B
:104F600054D04FF0080C0CFA04FC4CEA060CC5F8BF
:104F700008C8DAF800C02CEA030C4C6814F4801F4F
:104F800001D04CEA030CCAF800C0244CD4F800C08D
:104F90002CEA030C4D6815F4001F01D04CEA030CF9
:104FA000C4F800C0DBF800C02CEA030C4C6814F411
:104FB000003F01D04CEA030CCBF800C0184CD4F8E9
:104FC00000C02CEA030C4D6815F4803F01D04CEA78
:104FD000030CC4F800C0521C102AFFF41BAFBDE83C
:104FE000F88F4FF0000CBEE74FF0010CBBE74FF01D
:104FF000020CB8E74FF0030CB5E74FF0040CB2E732
:105000004FF0050CAFE74FF0060CACE74FF0070C84
:10501000A9E7000044380240083C01400C3C014034
:10502000003C0140002A01D0816170470904816180
:105030007047000001488068704700006803002046
:1050400070B50446002C04D094F83D00002510B142
:1050500006E0012070BD84F83C50204600F0C6F800
:10506000242084F83D002068016821F001010160DE
:105070002068016841F4004101602068016821F462
:105080000041016001F090F9544B6168994203D8E6
:105090005349884203D304E05249884201D2012097
:1050A00070BD5149B0FBF1F12268D2F804C02CF078
:1050B0003F0C4CEA010CC2F804C062689A4201D865
:1050C0004A1C07E04FF4967251434FF47A72B1FBD9
:1050D000F2F14A1C2168D1F820C02CF03F0C42EAC2
:1050E0000C020A626168994210D84900401EB0FB68
:1050F000F1F2521CC2F30B02042A01D2042026E072
:10510000B0FBF1F0401CC0F30B0020E0A268002AC5
:1051100050D001EBC10303EB0113A0F1010CBCFB68
:10512000F3F35B1C43F480431B051B0D4AD0002A9C
:105130004AD001EBC10202EB0111401EB0FBF1F0BD
:10514000401CC0F30B0040F4804040F40040216854
:10515000CA6922F0FF0222F44F421043C861216A5B
:10516000E06901432068026822F0C0021143016037
:10517000E168206901432068826822F0FF0222F47E
:10518000034211438160A169606901432068C268DC
:1051900022F0FF021143C1602068016841F0010163
:1051A00001602564202084F83D00256384F83E508A
:1051B000002070BD01EB4103A0F1010CBCFBF3F337
:1051C0005B1CB1E70120C2E701EB4101401EB0FBCF
:1051D000F1F0401CC0F30B00B7E70000A08601000F
:1051E00080841E0000093D0040420F0010B586B0CB
:1051F0000446142101A8FBF712FB444920688842A9
:1052000030D100BF002000904148006840F002000B
:105210003F4908600846006800F00200009000BFA7
:1052200000BF4FF4407001901220029001200390C3
:10523000032004900420059001A93648FFF7DCFD07
:1052400000BF0020009032481030006840F4001089
:105250002F49103108600846006800F400100090E3
:1052600000BF51E02C49206888424DD100BF00208A
:1052700000902748006840F004002549086008466F
:10528000006800F00400009000BF00BF00BF0020D5
:1052900000900846006840F0010008600846006879
:1052A00000F00100009000BF00BF481501901220DF
:1052B000029001200390032004900420059001A98E
:1052C0001648FFF799FD4FF480700190122002906C
:1052D00001200390032004900420059001A91048A8
:1052E000FFF78AFD00BF00200090094810300068D9
:1052F00040F400000649103108600846006800F4D8
:105300000000009000BF00BF06B010BD0054004078
:105310003038024000040240005C004000080240B7
:1053200000000240024881680278114481607047A1
:105330006803002010B50B48016841F4007101605A
:10534000016841F480610160016841F4807101608D
:10535000032000F0CFF80F2000F006F800F05EF810
:10536000002010BD003C02402DE9F04188B0044609
:105370000027B84600BF002001902348006840F095
:105380001000214908600846006800F010000190F4
:1053900000BF00BF02A903A800F0E2FF069F1FB9EB
:1053A00001F002F8054602E000F0FEFF4500174854
:1053B000B5FBF0F0A0F1010815481649086040F26D
:1053C000E7311448C160C0F80480002101618160A8
:1053D000816101F0CDFC064696B90E4801F0DCFD76
:1053E00006466EB9362000F043F8102C07D2002292
:1053F0002146362000F04AF80748046000E0012604
:10540000304608B0BDE8F0814038024040420F000D
:1054100000100040442E00206C03002008B500BF9F
:10542000002000901148006840F480400F49086057
:105430000846006800F48040009000BF00BF00BF35
:1054400000200090081F006840F08050091F08608D
:105450000846006800F08050009000BF00BF0022A6
:105460000F21901E00F012F808BD000044380240E1
:1054700000280ADB00F01F01012202FA01F14009B5
:10548000800000F1E020C0F80011704710B4184B04
:105490001B68C3F30223C3F1070CBCF1040F01D94D
:1054A0004FF0040C1C1D072C01D2002300E0DB1E72
:1054B000012404FA0CFCACF1010C0CEA0101994046
:1054C00004FA03F35B1E1A401143002806DB00F1C7
:1054D000E020090180F8001410BC704700F00F00B4
:1054E00000F1E020090180F8141D10BC7047000095
:1054F0000CED00E000F00700064A11684FF6FF03CC
:10550000194041EA002040F0FD7040F080601060DA
:10551000704700000CED00E0704700684162002019
:10552000704730B40368586A00291BD0D3F828C0EC
:1055300000EB1C4C00200129A1F101014FF4827401
:1055400008D004EB80055D590CEB154C401CC0B233
:105550008842F6D304EB81014CEA0240585030BC3B
:105560000020704740EA02409862F8E710B5044610
:10557000D4F8080507F002FF10BD70B504460D46CB
:1055800005EBC50304F13C0101EB83010A692946DF
:10559000D4F8080507F01CFE70BD70B504460D4632
:1055A00005EBC50304F51F7101EB83010A69294668
:1055B000D4F8080507F07AFE70BD10B50446D4F89B
:1055C000080507F0DDFE10BD11F0800F01F00F019E
:1055D00001EBC10100EB810101D03C3101E001F59B
:1055E0001F71006808F03BBF70B5044611F0800FD2
:1055F00001F00F0000EBC00104EB81014FF001024C
:105600004FF0000502D03C314A7002E001F51F71F5
:105610004D70087094F8BC04012808D084F8BC24AC
:10562000206808F097FB84F8BC54002070BD02206D
:1056300070BD70B5044601F00F026068824201D966
:10564000012070BD01F00F0000EBC00011F0800FD1
:1056500004EB80004FF001034FF0000503D000F190
:105660003C014B7002E000F51F714D708D700A70A7
:1056700094F8BC04012808D084F8BC34206808F0F1
:105680007DFD84F8BC54002070BD022070BD01F087
:105690000F0101EBC10100EB8100D0F89C027047C3
:1056A00070B5044611F0800F01F00F0000EBC0014F
:1056B00004EB81014FF0010C4FF0000503D03C31A9
:1056C00081F801C002E001F51F714D700870CA60D9
:1056D0000B714A7802B10881022B00D14D7194F808
:1056E000BC04012808D084F8BCC4206808F06EFA15
:1056F000284684F8BC5470BD022070BD10B50C461D
:1057000004F00F0C0CEBCC0100EB810101F51F71D3
:105710000A618B6100230B624B7081F800C0036942
:10572000012B00D14A6114F00F0F05D0027C0068F4
:1057300008F07FFD002010BD027C006808F056FCD8
:10574000F8E770B504460D46616805F00F00884221
:1057500001D9012070BD15F0800F4FF000064FF009
:10576000010206D000EBC00104EB81013C314A701C
:1057700006E005EBC50104EB810101F51F714E70D8
:105780008A70087094F8BC04012808D084F8BC24FE
:10579000206808F01FFD15F00F0F02D007E002206F
:1057A00070BD217C04F2C442206808F0B7FC84F884
:1057B000BC64002070BD10B50C4604F00F0C0CEB5F
:1057C000CC0100EB81013C310A618B6100230B624B
:1057D00001234B7081F800C00369012B00D14A619D
:1057E00014F00F0F05D0027C006808F022FD0020A5
:1057F00010BD027C006808F0F9FBF8E72DE9F05FC6
:1058000004462568284608F0EDFE00287ED1206871
:1058100008F014FF002879D0D5F80808C0F30D204F
:10582000C4F8FC04206808F009FF10F0020F04D04F
:105830002068416901F002014161206808F0FEFE24
:1058400010F0100F36D02068816921F010018161BD
:105850002F6A07F00F0000EBC00004EB800000F59A
:105860001F76C7F34340022802D0062812D01CE05E
:1058700047F6F070074218D0C7F30A1217462846B9
:10588000316908F0DFFE306938443061306A3844ED
:1058900030620AE0082204F2C441284608F0D2FE31
:1058A000306AC7F30A11084430622068816941F008
:1058B00010018161206808F0C1FE10F4002F4FF044
:1058C000100B4FF0000A4FF0010967D00026206846
:1058D00008F093FE80465FEA08005FD018F0010FE1
:1058E00056D0F1B2206808F0A1FE074617F0010F6C
:1058F00007D005EB4610C0F8089B3146204603F060
:10590000AFFB17F0080F0AD0082000E01FE205EBFC
:105910004611C1F8080B3146204603F07DFB17F015
:10592000100F03D005EB4610C0F808BB17F0020FAC
:105930001DD0686910F0800F05D0D5F8040840F438
:105940008061C5F8041806EBC60004EB800000F582
:105950001F70C178012905D180F803A0F1B220465B
:1059600000F007FA05EB46110220C1F8080B17F00A
:10597000200F04D005EB46112020C1F8080B17F4C6
:10598000005F05D005EB46114FF40050C1F8080B3D
:10599000761C4FEA5808B8F1000F9FD1206808F034
:1059A0004DFE10F4802F74D0206808F01FFE0746CB
:1059B0000026002F6DD04FF0020B17F0010F64D0BE
:1059C000F1B2206808F020FE804618F0010F24D0C4
:1059D00006F00F0009FA00F0D5F834188143C5F835
:1059E000341805EB4610C0F808992069012810D139
:1059F00006EBC60004EB8000826CC16C1144C164EC
:105A00003EB9606D28B904F2C4420121206808F053
:105A100085FBF1B22046FFF7B0FD18F0080F04D067
:105A200005EB46110820C1F8080918F0100F04D042
:105A300005EB46111020C1F8080918F0400F04D0FA
:105A400005EB46114020C1F8080918F0020F15D0E7
:105A50003146284608F08AFD06EBC60004EB8000BC
:105A60003C30C178012905D180F803A0F1B220466D
:105A700000F076F905EB4610C0F808B918F0800F71
:105A800003D03146204603F05FFB761C7F08002FD1
:105A900093D1206808F0D2FD10F0004F11D0D5F856
:105AA000040820F00101C5F8041894F8F404012852
:105AB00061D0204600F072FA2068416901F000418F
:105AC0004161206808F0BAFD10F4006F0CD0D5F8E1
:105AD000080810F0010F02D0204600F0ABFA206851
